{
  "contractName": "ClinicalTrial",
  "abi": [
    {
      "inputs": [
        {
          "internalType": "address",
          "name": "_tokenAddress",
          "type": "address"
        }
      ],
      "stateMutability": "nonpayable",
      "type": "constructor"
    },
    {
      "inputs": [],
      "name": "AccessControlBadConfirmation",
      "type": "error"
    },
    {
      "inputs": [
        {
          "internalType": "address",
          "name": "account",
          "type": "address"
        },
        {
          "internalType": "bytes32",
          "name": "neededRole",
          "type": "bytes32"
        }
      ],
      "name": "AccessControlUnauthorizedAccount",
      "type": "error"
    },
    {
      "inputs": [],
      "name": "EnforcedPause",
      "type": "error"
    },
    {
      "inputs": [],
      "name": "ExpectedPause",
      "type": "error"
    },
    {
      "inputs": [],
      "name": "ReentrancyGuardReentrantCall",
      "type": "error"
    },
    {
      "anonymous": false,
      "inputs": [
        {
          "indexed": true,
          "internalType": "address",
          "name": "doctor",
          "type": "address"
        }
      ],
      "name": "DoctorStaked",
      "type": "event"
    },
    {
      "anonymous": false,
      "inputs": [
        {
          "indexed": false,
          "internalType": "address",
          "name": "account",
          "type": "address"
        }
      ],
      "name": "Paused",
      "type": "event"
    },
    {
      "anonymous": false,
      "inputs": [
        {
          "indexed": true,
          "internalType": "bytes32",
          "name": "role",
          "type": "bytes32"
        },
        {
          "indexed": true,
          "internalType": "bytes32",
          "name": "previousAdminRole",
          "type": "bytes32"
        },
        {
          "indexed": true,
          "internalType": "bytes32",
          "name": "newAdminRole",
          "type": "bytes32"
        }
      ],
      "name": "RoleAdminChanged",
      "type": "event"
    },
    {
      "anonymous": false,
      "inputs": [
        {
          "indexed": true,
          "internalType": "bytes32",
          "name": "role",
          "type": "bytes32"
        },
        {
          "indexed": true,
          "internalType": "address",
          "name": "account",
          "type": "address"
        },
        {
          "indexed": true,
          "internalType": "address",
          "name": "sender",
          "type": "address"
        }
      ],
      "name": "RoleGranted",
      "type": "event"
    },
    {
      "anonymous": false,
      "inputs": [
        {
          "indexed": true,
          "internalType": "bytes32",
          "name": "role",
          "type": "bytes32"
        },
        {
          "indexed": true,
          "internalType": "address",
          "name": "account",
          "type": "address"
        },
        {
          "indexed": true,
          "internalType": "address",
          "name": "sender",
          "type": "address"
        }
      ],
      "name": "RoleRevoked",
      "type": "event"
    },
    {
      "anonymous": false,
      "inputs": [
        {
          "indexed": true,
          "internalType": "address",
          "name": "doctor",
          "type": "address"
        },
        {
          "indexed": false,
          "internalType": "uint256",
          "name": "amount",
          "type": "uint256"
        }
      ],
      "name": "StakeSlashed",
      "type": "event"
    },
    {
      "anonymous": false,
      "inputs": [
        {
          "indexed": false,
          "internalType": "address",
          "name": "account",
          "type": "address"
        }
      ],
      "name": "Unpaused",
      "type": "event"
    },
    {
      "anonymous": false,
      "inputs": [
        {
          "indexed": true,
          "internalType": "address",
          "name": "patient",
          "type": "address"
        },
        {
          "indexed": false,
          "internalType": "uint256",
          "name": "heartRate",
          "type": "uint256"
        },
        {
          "indexed": false,
          "internalType": "uint256",
          "name": "timestamp",
          "type": "uint256"
        }
      ],
      "name": "VitalsLogged",
      "type": "event"
    },
    {
      "inputs": [],
      "name": "DEFAULT_ADMIN_ROLE",
      "outputs": [
        {
          "internalType": "bytes32",
          "name": "",
          "type": "bytes32"
        }
      ],
      "stateMutability": "view",
      "type": "function",
      "constant": true
    },
    {
      "inputs": [],
      "name": "DOCTOR_ROLE",
      "outputs": [
        {
          "internalType": "bytes32",
          "name": "",
          "type": "bytes32"
        }
      ],
      "stateMutability": "view",
      "type": "function",
      "constant": true
    },
    {
      "inputs": [],
      "name": "DOCTOR_STAKE_AMOUNT",
      "outputs": [
        {
          "internalType": "uint256",
          "name": "",
          "type": "uint256"
        }
      ],
      "stateMutability": "view",
      "type": "function",
      "constant": true
    },
    {
      "inputs": [],
      "name": "REWARD_PER_LOG",
      "outputs": [
        {
          "internalType": "uint256",
          "name": "",
          "type": "uint256"
        }
      ],
      "stateMutability": "view",
      "type": "function",
      "constant": true
    },
    {
      "inputs": [],
      "name": "bvtToken",
      "outputs": [
        {
          "internalType": "contract BioToken",
          "name": "",
          "type": "address"
        }
      ],
      "stateMutability": "view",
      "type": "function",
      "constant": true
    },
    {
      "inputs": [
        {
          "internalType": "bytes32",
          "name": "role",
          "type": "bytes32"
        }
      ],
      "name": "getRoleAdmin",
      "outputs": [
        {
          "internalType": "bytes32",
          "name": "",
          "type": "bytes32"
        }
      ],
      "stateMutability": "view",
      "type": "function",
      "constant": true
    },
    {
      "inputs": [
        {
          "internalType": "bytes32",
          "name": "role",
          "type": "bytes32"
        },
        {
          "internalType": "address",
          "name": "account",
          "type": "address"
        }
      ],
      "name": "grantRole",
      "outputs": [],
      "stateMutability": "nonpayable",
      "type": "function"
    },
    {
      "inputs": [
        {
          "internalType": "bytes32",
          "name": "role",
          "type": "bytes32"
        },
        {
          "internalType": "address",
          "name": "account",
          "type": "address"
        }
      ],
      "name": "hasRole",
      "outputs": [
        {
          "internalType": "bool",
          "name": "",
          "type": "bool"
        }
      ],
      "stateMutability": "view",
      "type": "function",
      "constant": true
    },
    {
      "inputs": [
        {
          "internalType": "address",
          "name": "",
          "type": "address"
        }
      ],
      "name": "patients",
      "outputs": [
        {
          "internalType": "bytes32",
          "name": "identityHash",
          "type": "bytes32"
        },
        {
          "internalType": "uint8",
          "name": "group",
          "type": "uint8"
        },
        {
          "internalType": "uint256",
          "name": "lastLogTime",
          "type": "uint256"
        },
        {
          "internalType": "bool",
          "name": "isRegistered",
          "type": "bool"
        }
      ],
      "stateMutability": "view",
      "type": "function",
      "constant": true
    },
    {
      "inputs": [],
      "name": "paused",
      "outputs": [
        {
          "internalType": "bool",
          "name": "",
          "type": "bool"
        }
      ],
      "stateMutability": "view",
      "type": "function",
      "constant": true
    },
    {
      "inputs": [
        {
          "internalType": "bytes32",
          "name": "role",
          "type": "bytes32"
        },
        {
          "internalType": "address",
          "name": "callerConfirmation",
          "type": "address"
        }
      ],
      "name": "renounceRole",
      "outputs": [],
      "stateMutability": "nonpayable",
      "type": "function"
    },
    {
      "inputs": [
        {
          "internalType": "bytes32",
          "name": "role",
          "type": "bytes32"
        },
        {
          "internalType": "address",
          "name": "account",
          "type": "address"
        }
      ],
      "name": "revokeRole",
      "outputs": [],
      "stateMutability": "nonpayable",
      "type": "function"
    },
    {
      "inputs": [
        {
          "internalType": "address",
          "name": "",
          "type": "address"
        }
      ],
      "name": "stakedAmount",
      "outputs": [
        {
          "internalType": "uint256",
          "name": "",
          "type": "uint256"
        }
      ],
      "stateMutability": "view",
      "type": "function",
      "constant": true
    },
    {
      "inputs": [
        {
          "internalType": "bytes4",
          "name": "interfaceId",
          "type": "bytes4"
        }
      ],
      "name": "supportsInterface",
      "outputs": [
        {
          "internalType": "bool",
          "name": "",
          "type": "bool"
        }
      ],
      "stateMutability": "view",
      "type": "function",
      "constant": true
    },
    {
      "inputs": [],
      "name": "applyForDoctorRole",
      "outputs": [],
      "stateMutability": "nonpayable",
      "type": "function"
    },
    {
      "inputs": [
        {
          "internalType": "address",
          "name": "doctor",
          "type": "address"
        }
      ],
      "name": "slashDoctor",
      "outputs": [],
      "stateMutability": "nonpayable",
      "type": "function"
    },
    {
      "inputs": [
        {
          "internalType": "bytes32",
          "name": "_idHash",
          "type": "bytes32"
        }
      ],
      "name": "registerPatient",
      "outputs": [],
      "stateMutability": "nonpayable",
      "type": "function"
    },
    {
      "inputs": [
        {
          "internalType": "uint256",
          "name": "_heartRate",
          "type": "uint256"
        }
      ],
      "name": "logVitals",
      "outputs": [],
      "stateMutability": "nonpayable",
      "type": "function"
    },
    {
      "inputs": [],
      "name": "pause",
      "outputs": [],
      "stateMutability": "nonpayable",
      "type": "function"
    },
    {
      "inputs": [],
      "name": "unpause",
      "outputs": [],
      "stateMutability": "nonpayable",
      "type": "function"
    }
  ],
  "bytecode": "0x60a06040523480156200001157600080fd5b5060405162001d0038038062001d00833981810160405281019062000037919062000271565b60016000819055508073ffffffffffffffffffffffffffffffffffffffff1660808173ffffffffffffffffffffffffffffffffffffffff1681525050620000886000801b336200009060201b60201c565b5050620002a3565b6000620000a483836200019460201b60201c565b620001895760016002600085815260200190815260200160002060000160008473ffffffffffffffffffffffffffffffffffffffff1673ffffffffffffffffffffffffffffffffffffffff16815260200190815260200160002060006101000a81548160ff02191690831515021790555062000125620001ff60201b60201c565b73ffffffffffffffffffffffffffffffffffffffff168273ffffffffffffffffffffffffffffffffffffffff16847f2f8788117e7eff1d82e926ec794901d17c78024a50270940304540a733656f0d60405160405180910390a4600190506200018e565b600090505b92915050565b60006002600084815260200190815260200160002060000160008373ffffffffffffffffffffffffffffffffffffffff1673ffffffffffffffffffffffffffffffffffffffff16815260200190815260200160002060009054906101000a900460ff16905092915050565b600033905090565b600080fd5b600073ffffffffffffffffffffffffffffffffffffffff82169050919050565b600062000239826200020c565b9050919050565b6200024b816200022c565b81146200025757600080fd5b50565b6000815190506200026b8162000240565b92915050565b6000602082840312156200028a576200028962000207565b5b60006200029a848285016200025a565b91505092915050565b608051611a2c620002d460003960008181610539015281816109b101528181610aac0152610b870152611a2c6000f3fe608060405234801561001057600080fd5b506004361061012c5760003560e01c80638456cb59116100ad578063c88d38bb11610071578063c88d38bb1461030c578063d547741f14610316578063eee52b7414610332578063f993185514610350578063fec331f2146103805761012c565b80638456cb591461027c5780638ebc10d91461028657806391d14854146102a2578063a217fddf146102d2578063b1f98117146102f05761012c565b80633f4ba83a116100f45780633f4ba83a146101fc5780635b7409af146102065780635c975abb146102245780636471034c14610242578063802854341461025e5761012c565b806301ffc9a7146101315780630869cfbc14610161578063248a9ca3146101945780632f2ff15d146101c457806336568abe146101e0575b600080fd5b61014b6004803603810190610146919061120e565b61039e565b6040516101589190611256565b60405180910390f35b61017b600480360381019061017691906112cf565b610418565b60405161018b949392919061134a565b60405180910390f35b6101ae60048036038101906101a991906113bb565b610462565b6040516101bb91906113e8565b60405180910390f35b6101de60048036038101906101d99190611403565b610482565b005b6101fa60048036038101906101f59190611403565b6104a4565b005b61020461051f565b005b61020e610537565b60405161021b91906114a2565b60405180910390f35b61022c61055b565b6040516102399190611256565b60405180910390f35b61025c600480360381019061025791906112cf565b610572565b005b610266610686565b60405161027391906114bd565b60405180910390f35b610284610692565b005b6102a0600480360381019061029b91906113bb565b6106aa565b005b6102bc60048036038101906102b79190611403565b610845565b6040516102c99190611256565b60405180910390f35b6102da6108b0565b6040516102e791906113e8565b60405180910390f35b61030a60048036038101906103059190611504565b6108b7565b005b610314610a98565b005b610330600480360381019061032b9190611403565b610cf4565b005b61033a610d16565b60405161034791906114bd565b60405180910390f35b61036a600480360381019061036591906112cf565b610d23565b60405161037791906114bd565b60405180910390f35b610388610d3b565b60405161039591906113e8565b60405180910390f35b60007f7965db0b000000000000000000000000000000000000000000000000000000007bffffffffffffffffffffffffffffffffffffffffffffffffffffffff1916827bffffffffffffffffffffffffffffffffffffffffffffffffffffffff19161480610411575061041082610d5f565b5b9050919050565b60036020528060005260406000206000915090508060000154908060010160009054906101000a900460ff16908060020154908060030160009054906101000a900460ff16905084565b600060026000838152602001908152602001600020600101549050919050565b61048b82610462565b61049481610dc9565b61049e8383610ddd565b50505050565b6104ac610ecf565b73ffffffffffffffffffffffffffffffffffffffff168173ffffffffffffffffffffffffffffffffffffffff1614610510576040517f6697b23200000000000000000000000000000000000000000000000000000000815260040160405180910390fd5b61051a8282610ed7565b505050565b6000801b61052c81610dc9565b610534610fca565b50565b7f000000000000000000000000000000000000000000000000000000000000000081565b6000600160009054906101000a900460ff16905090565b6000801b61057f81610dc9565b6000600460008473ffffffffffffffffffffffffffffffffffffffff1673ffffffffffffffffffffffffffffffffffffffff1681526020019081526020016000205490506000600460008573ffffffffffffffffffffffffffffffffffffffff1673ffffffffffffffffffffffffffffffffffffffff168152602001908152602001600020819055506106327f0af1dac7dea2fd7f7738119cec7df099dfad49aa9d2e7d17ba6b60f63ae7411f84610ed7565b508273ffffffffffffffffffffffffffffffffffffffff167f83f5ea8bea7627d95274e94dd7e9e3d7e82cb55feab513ed49e325232dcc61e08260405161067991906114bd565b60405180910390a2505050565b670de0b6b3a764000081565b6000801b61069f81610dc9565b6106a761102d565b50565b600360003373ffffffffffffffffffffffffffffffffffffffff1673ffffffffffffffffffffffffffffffffffffffff16815260200190815260200160002060030160009054906101000a900460ff161561073a576040517f08c379a00000000000000000000000000000000000000000000000000000000081526004016107319061158e565b60405180910390fd5b6000600160024233604051602001610753929190611617565b6040516020818303038152906040528051906020012060001c6107769190611672565b61078091906116d2565b905060405180608001604052808381526020018260ff1681526020016000815260200160011515815250600360003373ffffffffffffffffffffffffffffffffffffffff1673ffffffffffffffffffffffffffffffffffffffff1681526020019081526020016000206000820151816000015560208201518160010160006101000a81548160ff021916908360ff1602179055506040820151816002015560608201518160030160006101000a81548160ff0219169083151502179055509050505050565b60006002600084815260200190815260200160002060000160008373ffffffffffffffffffffffffffffffffffffffff1673ffffffffffffffffffffffffffffffffffffffff16815260200190815260200160002060009054906101000a900460ff16905092915050565b6000801b81565b6108bf61108f565b6000600360003373ffffffffffffffffffffffffffffffffffffffff1673ffffffffffffffffffffffffffffffffffffffff16815260200190815260200160002090508060030160009054906101000a900460ff16610953576040517f08c379a000000000000000000000000000000000000000000000000000000000815260040161094a90611753565b60405180910390fd5b603c81600201546109649190611773565b4210156109a6576040517f08c379a000000000000000000000000000000000000000000000000000000000815260040161099d906117f3565b60405180910390fd5b4281600201819055507f000000000000000000000000000000000000000000000000000000000000000073ffffffffffffffffffffffffffffffffffffffff166340c10f1933670de0b6b3a76400006040518363ffffffff1660e01b8152600401610a12929190611822565b600060405180830381600087803b158015610a2c57600080fd5b505af1158015610a40573d6000803e3d6000fd5b505050503373ffffffffffffffffffffffffffffffffffffffff167f346a51a30667f83f81287a1d90480ceb1a2dc8bfc7deb5ead38070004e5720b38342604051610a8c92919061184b565b60405180910390a25050565b610aa06110d0565b683635c9adc5dea000007f000000000000000000000000000000000000000000000000000000000000000073ffffffffffffffffffffffffffffffffffffffff166370a08231336040518263ffffffff1660e01b8152600401610b039190611874565b602060405180830381865afa158015610b20573d6000803e3d6000fd5b505050506040513d601f19601f82011682018060405250810190610b4491906118a4565b1015610b85576040517f08c379a0000000000000000000000000000000000000000000000000000000008152600401610b7c9061191d565b60405180910390fd5b7f000000000000000000000000000000000000000000000000000000000000000073ffffffffffffffffffffffffffffffffffffffff166323b872dd3330683635c9adc5dea000006040518463ffffffff1660e01b8152600401610beb9392919061193d565b6020604051808303816000875af1158015610c0a573d6000803e3d6000fd5b505050506040513d601f19601f82011682018060405250810190610c2e91906119a0565b50683635c9adc5dea00000600460003373ffffffffffffffffffffffffffffffffffffffff1673ffffffffffffffffffffffffffffffffffffffff16815260200190815260200160002081905550610ca67f0af1dac7dea2fd7f7738119cec7df099dfad49aa9d2e7d17ba6b60f63ae7411f33610ddd565b503373ffffffffffffffffffffffffffffffffffffffff167fc5136c3b1ff2f7d0c103fce135403be4251f832032812e5256e48be3cdeadbed60405160405180910390a2610cf2611116565b565b610cfd82610462565b610d0681610dc9565b610d108383610ed7565b50505050565b683635c9adc5dea0000081565b60046020528060005260406000206000915090505481565b7f0af1dac7dea2fd7f7738119cec7df099dfad49aa9d2e7d17ba6b60f63ae7411f81565b60007f01ffc9a7000000000000000000000000000000000000000000000000000000007bffffffffffffffffffffffffffffffffffffffffffffffffffffffff1916827bffffffffffffffffffffffffffffffffffffffffffffffffffffffff1916149050919050565b610dda81610dd5610ecf565b611120565b50565b6000610de98383610845565b610ec45760016002600085815260200190815260200160002060000160008473ffffffffffffffffffffffffffffffffffffffff1673ffffffffffffffffffffffffffffffffffffffff16815260200190815260200160002060006101000a81548160ff021916908315150217905550610e61610ecf565b73ffffffffffffffffffffffffffffffffffffffff168273ffffffffffffffffffffffffffffffffffffffff16847f2f8788117e7eff1d82e926ec794901d17c78024a50270940304540a733656f0d60405160405180910390a460019050610ec9565b600090505b92915050565b600033905090565b6000610ee38383610845565b15610fbf5760006002600085815260200190815260200160002060000160008473ffffffffffffffffffffffffffffffffffffffff1673ffffffffffffffffffffffffffffffffffffffff16815260200190815260200160002060006101000a81548160ff021916908315150217905550610f5c610ecf565b73ffffffffffffffffffffffffffffffffffffffff168273ffffffffffffffffffffffffffffffffffffffff16847ff6391f5c32d9c69d2a47ea670b442974b53935d1edc7fd64eb21e047a839171b60405160405180910390a460019050610fc4565b600090505b92915050565b610fd2611171565b6000600160006101000a81548160ff0219169083151502179055507f5db9ee0a495bf2e6ff9c91a7834c1ba4fdd244a5e8aa4e537bd38aeae4b073aa611016610ecf565b6040516110239190611874565b60405180910390a1565b61103561108f565b60018060006101000a81548160ff0219169083151502179055507f62e78cea01bee320cd4e420270b5ea74000d11b0c9f74754ebdbfc544b05a258611078610ecf565b6040516110859190611874565b60405180910390a1565b61109761055b565b156110ce576040517fd93c066500000000000000000000000000000000000000000000000000000000815260040160405180910390fd5b565b60026000540361110c576040517f3ee5aeb500000000000000000000000000000000000000000000000000000000815260040160405180910390fd5b6002600081905550565b6001600081905550565b61112a8282610845565b61116d5780826040517fe2517d3f0000000000000000000000000000000000000000000000000000000081526004016111649291906119cd565b60405180910390fd5b5050565b61117961055b565b6111af576040517f8dfc202b00000000000000000000000000000000000000000000000000000000815260040160405180910390fd5b565b600080fd5b60007fffffffff0000000000000000000000000000000000000000000000000000000082169050919050565b6111eb816111b6565b81146111f657600080fd5b50565b600081359050611208816111e2565b92915050565b600060208284031215611224576112236111b1565b5b6000611232848285016111f9565b91505092915050565b60008115159050919050565b6112508161123b565b82525050565b600060208201905061126b6000830184611247565b92915050565b600073ffffffffffffffffffffffffffffffffffffffff82169050919050565b600061129c82611271565b9050919050565b6112ac81611291565b81146112b757600080fd5b50565b6000813590506112c9816112a3565b92915050565b6000602082840312156112e5576112e46111b1565b5b60006112f3848285016112ba565b91505092915050565b6000819050919050565b61130f816112fc565b82525050565b600060ff82169050919050565b61132b81611315565b82525050565b6000819050919050565b61134481611331565b82525050565b600060808201905061135f6000830187611306565b61136c6020830186611322565b611379604083018561133b565b6113866060830184611247565b95945050505050565b611398816112fc565b81146113a357600080fd5b50565b6000813590506113b58161138f565b92915050565b6000602082840312156113d1576113d06111b1565b5b60006113df848285016113a6565b91505092915050565b60006020820190506113fd6000830184611306565b92915050565b6000806040838503121561141a576114196111b1565b5b6000611428858286016113a6565b9250506020611439858286016112ba565b9150509250929050565b6000819050919050565b600061146861146361145e84611271565b611443565b611271565b9050919050565b600061147a8261144d565b9050919050565b600061148c8261146f565b9050919050565b61149c81611481565b82525050565b60006020820190506114b76000830184611493565b92915050565b60006020820190506114d2600083018461133b565b92915050565b6114e181611331565b81146114ec57600080fd5b50565b6000813590506114fe816114d8565b92915050565b60006020828403121561151a576115196111b1565b5b6000611528848285016114ef565b91505092915050565b600082825260208201905092915050565b7f416c726561647920726567697374657265640000000000000000000000000000600082015250565b6000611578601283611531565b915061158382611542565b602082019050919050565b600060208201905081810360008301526115a78161156b565b9050919050565b6000819050919050565b6115c96115c482611331565b6115ae565b82525050565b60008160601b9050919050565b60006115e7826115cf565b9050919050565b60006115f9826115dc565b9050919050565b61161161160c82611291565b6115ee565b82525050565b600061162382856115b8565b6020820191506116338284611600565b6014820191508190509392505050565b7f4e487b7100000000000000000000000000000000000000000000000000000000600052601260045260246000fd5b600061167d82611331565b915061168883611331565b92508261169857611697611643565b5b828206905092915050565b7f4e487b7100000000000000000000000000000000000000000000000000000000600052601160045260246000fd5b60006116dd82611315565b91506116e883611315565b9250828201905060ff811115611701576117006116a3565b5b92915050565b7f4e6f74206120726567697374657265642070617469656e740000000000000000600082015250565b600061173d601883611531565b915061174882611707565b602082019050919050565b6000602082019050818103600083015261176c81611730565b9050919050565b600061177e82611331565b915061178983611331565b92508282019050808211156117a1576117a06116a3565b5b92915050565b7f52617465206c696d69743a2031206c6f672f6d696e0000000000000000000000600082015250565b60006117dd601583611531565b91506117e8826117a7565b602082019050919050565b6000602082019050818103600083015261180c816117d0565b9050919050565b61181c81611291565b82525050565b60006040820190506118376000830185611813565b611844602083018461133b565b9392505050565b6000604082019050611860600083018561133b565b61186d602083018461133b565b9392505050565b60006020820190506118896000830184611813565b92915050565b60008151905061189e816114d8565b92915050565b6000602082840312156118ba576118b96111b1565b5b60006118c88482850161188f565b91505092915050565b7f496e73756666696369656e742042565400000000000000000000000000000000600082015250565b6000611907601083611531565b9150611912826118d1565b602082019050919050565b60006020820190508181036000830152611936816118fa565b9050919050565b60006060820190506119526000830186611813565b61195f6020830185611813565b61196c604083018461133b565b949350505050565b61197d8161123b565b811461198857600080fd5b50565b60008151905061199a81611974565b92915050565b6000602082840312156119b6576119b56111b1565b5b60006119c48482850161198b565b91505092915050565b60006040820190506119e26000830185611813565b6119ef6020830184611306565b939250505056fea264697066735822122013202d6272f47fe6b3b6e6e9161248c47c5eb9709790bb9897b686131ef1db3064736f6c63430008130033",
  "immutableReferences": {
    "1473": [
      {
        "length": 32,
        "start": 1337
      },
      {
        "length": 32,
        "start": 2481
      },
      {
        "length": 32,
        "start": 2732
      },
      {
        "length": 32,
        "start": 2951
      }
    ]
  },
  "source": "// SPDX-License-Identifier: MIT\r\npragma solidity ^0.8.19;\r\n\r\nimport \"@openzeppelin/contracts/utils/ReentrancyGuard.sol\";\r\nimport \"@openzeppelin/contracts/utils/Pausable.sol\";\r\nimport \"@openzeppelin/contracts/access/AccessControl.sol\";\r\nimport \"./BioToken.sol\";\r\n\r\ncontract ClinicalTrial is ReentrancyGuard, Pausable, AccessControl {\r\n    bytes32 public constant DOCTOR_ROLE = keccak256(\"DOCTOR_ROLE\");\r\n    uint256 public constant DOCTOR_STAKE_AMOUNT = 1000 * 10**18;\r\n    uint256 public constant REWARD_PER_LOG = 1 * 10**18;\r\n\r\n    BioToken public immutable bvtToken;\r\n\r\n    struct Patient {\r\n        bytes32 identityHash; // GDPR/HIPAA Compliance\r\n        uint8 group; // 1 = Drug, 2 = Placebo\r\n        uint256 lastLogTime;\r\n        bool isRegistered;\r\n    }\r\n\r\n    mapping(address => Patient) public patients;\r\n    mapping(address => uint256) public stakedAmount;\r\n\r\n    event DoctorStaked(address indexed doctor);\r\n    event VitalsLogged(address indexed patient, uint256 heartRate, uint256 timestamp);\r\n    event StakeSlashed(address indexed doctor, uint256 amount);\r\n\r\n    constructor(address _tokenAddress) {\r\n        bvtToken = BioToken(_tokenAddress);\r\n        _grantRole(DEFAULT_ADMIN_ROLE, msg.sender);\r\n    }\r\n\r\n    /**\r\n     * @dev Doctors stake BVT to gain DOCTOR_ROLE.\r\n     */\r\n    function applyForDoctorRole() external nonReentrant {\r\n        require(bvtToken.balanceOf(msg.sender) >= DOCTOR_STAKE_AMOUNT, \"Insufficient BVT\");\r\n        bvtToken.transferFrom(msg.sender, address(this), DOCTOR_STAKE_AMOUNT);\r\n        \r\n        stakedAmount[msg.sender] = DOCTOR_STAKE_AMOUNT;\r\n        _grantRole(DOCTOR_ROLE, msg.sender);\r\n        \r\n        emit DoctorStaked(msg.sender);\r\n    }\r\n\r\n    /**\r\n     * @dev Admin can slash malicious doctors.\r\n     */\r\n    function slashDoctor(address doctor) external onlyRole(DEFAULT_ADMIN_ROLE) {\r\n        uint256 amount = stakedAmount[doctor];\r\n        stakedAmount[doctor] = 0;\r\n        _revokeRole(DOCTOR_ROLE, doctor);\r\n        emit StakeSlashed(doctor, amount);\r\n    }\r\n\r\n    /**\r\n     * @dev Register patient using a hash (off-chain IPFS link).\r\n     */\r\n    function registerPatient(bytes32 _idHash) external {\r\n        require(!patients[msg.sender].isRegistered, \"Already registered\");\r\n        \r\n        // Pseudo-random group assignment (Note: Use VRF in Prod)\r\n        uint8 assignedGroup = uint8(uint256(keccak256(abi.encodePacked(block.timestamp, msg.sender))) % 2) + 1;\r\n\r\n        patients[msg.sender] = Patient({\r\n            identityHash: _idHash,\r\n            group: assignedGroup,\r\n            lastLogTime: 0,\r\n            isRegistered: true\r\n        });\r\n    }\r\n\r\n    /**\r\n     * @dev IoT stream receiver with rate limiting and automated rewards.\r\n     */\r\n    function logVitals(uint256 _heartRate) external whenNotPaused {\r\n        Patient storage patient = patients[msg.sender];\r\n        require(patient.isRegistered, \"Not a registered patient\");\r\n        require(block.timestamp >= patient.lastLogTime + 1 minutes, \"Rate limit: 1 log/min\");\r\n\r\n        patient.lastLogTime = block.timestamp;\r\n        \r\n        // Logic: Trigger reward minting\r\n        bvtToken.mint(msg.sender, REWARD_PER_LOG);\r\n\r\n        emit VitalsLogged(msg.sender, _heartRate, block.timestamp);\r\n    }\r\n\r\n    function pause() external onlyRole(DEFAULT_ADMIN_ROLE) { _pause(); }\r\n    function unpause() external onlyRole(DEFAULT_ADMIN_ROLE) { _unpause(); }\r\n}",
  "sourcePath": "C:\\Users\\atifm\\OneDrive\\Desktop\\bioveritas-pro\\blockchain\\contracts\\ClinicalTrial.sol",
  "compiler": {
    "name": "solc",
    "version": "0.8.19+commit.7dd6d404.Emscripten.clang"
  },
  "schemaVersion": "3.4.16",
  "updatedAt": "2026-02-06T15:13:29.691Z",
  "networkType": "ethereum",
  "devdoc": {
    "errors": {
      "AccessControlBadConfirmation()": [
        {
          "details": "The caller of a function is not the expected one. NOTE: Don't confuse with {AccessControlUnauthorizedAccount}."
        }
      ],
      "AccessControlUnauthorizedAccount(address,bytes32)": [
        {
          "details": "The `account` is missing a role."
        }
      ],
      "EnforcedPause()": [
        {
          "details": "The operation failed because the contract is paused."
        }
      ],
      "ExpectedPause()": [
        {
          "details": "The operation failed because the contract is not paused."
        }
      ],
      "ReentrancyGuardReentrantCall()": [
        {
          "details": "Unauthorized reentrant call."
        }
      ]
    },
    "events": {
      "Paused(address)": {
        "details": "Emitted when the pause is triggered by `account`."
      },
      "RoleAdminChanged(bytes32,bytes32,bytes32)": {
        "details": "Emitted when `newAdminRole` is set as ``role``'s admin role, replacing `previousAdminRole` `DEFAULT_ADMIN_ROLE` is the starting admin for all roles, despite {RoleAdminChanged} not being emitted to signal this."
      },
      "RoleGranted(bytes32,address,address)": {
        "details": "Emitted when `account` is granted `role`. `sender` is the account that originated the contract call. This account bears the admin role (for the granted role). Expected in cases where the role was granted using the internal {AccessControl-_grantRole}."
      },
      "RoleRevoked(bytes32,address,address)": {
        "details": "Emitted when `account` is revoked `role`. `sender` is the account that originated the contract call:   - if using `revokeRole`, it is the admin role bearer   - if using `renounceRole`, it is the role bearer (i.e. `account`)"
      },
      "Unpaused(address)": {
        "details": "Emitted when the pause is lifted by `account`."
      }
    },
    "kind": "dev",
    "methods": {
      "applyForDoctorRole()": {
        "details": "Doctors stake BVT to gain DOCTOR_ROLE."
      },
      "getRoleAdmin(bytes32)": {
        "details": "Returns the admin role that controls `role`. See {grantRole} and {revokeRole}. To change a role's admin, use {_setRoleAdmin}."
      },
      "grantRole(bytes32,address)": {
        "details": "Grants `role` to `account`. If `account` had not been already granted `role`, emits a {RoleGranted} event. Requirements: - the caller must have ``role``'s admin role. May emit a {RoleGranted} event."
      },
      "hasRole(bytes32,address)": {
        "details": "Returns `true` if `account` has been granted `role`."
      },
      "logVitals(uint256)": {
        "details": "IoT stream receiver with rate limiting and automated rewards."
      },
      "paused()": {
        "details": "Returns true if the contract is paused, and false otherwise."
      },
      "registerPatient(bytes32)": {
        "details": "Register patient using a hash (off-chain IPFS link)."
      },
      "renounceRole(bytes32,address)": {
        "details": "Revokes `role` from the calling account. Roles are often managed via {grantRole} and {revokeRole}: this function's purpose is to provide a mechanism for accounts to lose their privileges if they are compromised (such as when a trusted device is misplaced). If the calling account had been revoked `role`, emits a {RoleRevoked} event. Requirements: - the caller must be `callerConfirmation`. May emit a {RoleRevoked} event."
      },
      "revokeRole(bytes32,address)": {
        "details": "Revokes `role` from `account`. If `account` had been granted `role`, emits a {RoleRevoked} event. Requirements: - the caller must have ``role``'s admin role. May emit a {RoleRevoked} event."
      },
      "slashDoctor(address)": {
        "details": "Admin can slash malicious doctors."
      },
      "supportsInterface(bytes4)": {
        "details": "Returns true if this contract implements the interface defined by `interfaceId`. See the corresponding https://eips.ethereum.org/EIPS/eip-165#how-interfaces-are-identified[ERC section] to learn more about how these ids are created. This function call must use less than 30 000 gas."
      }
    },
    "version": 1
  },
  "userdoc": {
    "kind": "user",
    "methods": {},
    "version": 1
  }
}